{
  "contractName": "Collectible",
  "abi": [
    {
      "inputs": [
        {
          "internalType": "contract Tangible",
          "name": "_parentContract",
          "type": "address"
        },
        {
          "internalType": "uint256",
          "name": "_index",
          "type": "uint256"
        },
        {
          "internalType": "string",
          "name": "_uri",
          "type": "string"
        }
      ],
      "stateMutability": "nonpayable",
      "type": "constructor"
    },
    {
      "stateMutability": "payable",
      "type": "fallback"
    },
    {
      "inputs": [],
      "name": "uri",
      "outputs": [
        {
          "internalType": "string",
          "name": "",
          "type": "string"
        }
      ],
      "stateMutability": "view",
      "type": "function"
    }
  ],
  "bytecode": "0x608060405234801561001057600080fd5b50604051610614380380610614833981810160405281019061003291906101ce565b82600260006101000a81548173ffffffffffffffffffffffffffffffffffffffff021916908373ffffffffffffffffffffffffffffffffffffffff160217905550816001819055508060009080519060200190610090929190610099565b505050506103d5565b8280546100a590610317565b90600052602060002090601f0160209004810192826100c7576000855561010e565b82601f106100e057805160ff191683800117855561010e565b8280016001018555821561010e579182015b8281111561010d5782518255916020019190600101906100f2565b5b50905061011b919061011f565b5090565b5b80821115610138576000816000905550600101610120565b5090565b600061014f61014a84610266565b610235565b90508281526020810184848401111561016757600080fd5b6101728482856102e4565b509392505050565b600081519050610189816103a7565b92915050565b600082601f8301126101a057600080fd5b81516101b084826020860161013c565b91505092915050565b6000815190506101c8816103be565b92915050565b6000806000606084860312156101e357600080fd5b60006101f18682870161017a565b9350506020610202868287016101b9565b925050604084015167ffffffffffffffff81111561021f57600080fd5b61022b8682870161018f565b9150509250925092565b6000604051905081810181811067ffffffffffffffff8211171561025c5761025b610378565b5b8060405250919050565b600067ffffffffffffffff82111561028157610280610378565b5b601f19601f8301169050602081019050919050565b60006102a1826102ba565b9050919050565b60006102b382610296565b9050919050565b600073ffffffffffffffffffffffffffffffffffffffff82169050919050565b6000819050919050565b60005b838110156103025780820151818401526020810190506102e7565b83811115610311576000848401525b50505050565b6000600282049050600182168061032f57607f821691505b6020821081141561034357610342610349565b5b50919050565b7f4e487b7100000000000000000000000000000000000000000000000000000000600052602260045260246000fd5b7f4e487b7100000000000000000000000000000000000000000000000000000000600052604160045260246000fd5b6103b0816102a8565b81146103bb57600080fd5b50565b6103c7816102da565b81146103d257600080fd5b50565b610230806103e46000396000f3fe6080604052600436106100225760003560e01c8063eac989f81461002557610023565b5b005b34801561003157600080fd5b5061003a610050565b6040516100479190610117565b60405180910390f35b6000805461005d90610188565b80601f016020809104026020016040519081016040528092919081815260200182805461008990610188565b80156100d65780601f106100ab576101008083540402835291602001916100d6565b820191906000526020600020905b8154815290600101906020018083116100b957829003601f168201915b505050505081565b60006100e982610139565b6100f38185610144565b9350610103818560208601610155565b61010c816101e9565b840191505092915050565b6000602082019050818103600083015261013181846100de565b905092915050565b600081519050919050565b600082825260208201905092915050565b60005b83811015610173578082015181840152602081019050610158565b83811115610182576000848401525b50505050565b600060028204905060018216806101a057607f821691505b602082108114156101b4576101b36101ba565b5b50919050565b7f4e487b7100000000000000000000000000000000000000000000000000000000600052602260045260246000fd5b6000601f19601f830116905091905056fea26469706673582212209b9db2b3886dfd9a8e5c3967e4313453c53ce7f6f544bcf67163fec51cfe848664736f6c63430008000033",
  "immutableReferences": {},
  "source": "// SPDX-License-Identifier: MIT\npragma solidity >=0.4.22 <0.9.0;\nimport \"./Tangible.sol\";\n\n// potatoes\n\ncontract Collectible {\n    string public uri;\n    uint256 private index;\n    Tangible parentContract;\n\n    constructor(\n        Tangible _parentContract,\n        uint256 _index,\n        string memory _uri\n    ) public {\n        parentContract = _parentContract;\n        index = _index;\n        uri = _uri;\n    }\n\n    fallback() external payable {}\n}\n",
  "sourcePath": "/Users/fabriciopolicarpo/Desktop/Projects/drizzle-react-tutorial/contracts/Collectible.sol",
  "compiler": {
    "name": "solc",
    "version": "0.8.0+commit.c7dfd78e.Emscripten.clang"
  },
  "schemaVersion": "3.4.1",
  "updatedAt": "2021-06-06T00:36:39.921Z",
  "devdoc": {
    "kind": "dev",
    "methods": {},
    "version": 1
  },
  "userdoc": {
    "kind": "user",
    "methods": {},
    "version": 1
  }
}