{
  "contractName": "TangibleMarketPlace",
  "abi": [
    {
      "anonymous": false,
      "inputs": [
        {
          "indexed": false,
          "internalType": "uint256",
          "name": "id",
          "type": "uint256"
        },
        {
          "indexed": false,
          "internalType": "uint256",
          "name": "tokenId",
          "type": "uint256"
        },
        {
          "indexed": false,
          "internalType": "address",
          "name": "tokenAddress",
          "type": "address"
        },
        {
          "indexed": false,
          "internalType": "uint256",
          "name": "askingPrice",
          "type": "uint256"
        }
      ],
      "name": "itemAdded",
      "type": "event"
    },
    {
      "anonymous": false,
      "inputs": [
        {
          "indexed": false,
          "internalType": "uint256",
          "name": "id",
          "type": "uint256"
        },
        {
          "indexed": false,
          "internalType": "address",
          "name": "buyer",
          "type": "address"
        },
        {
          "indexed": false,
          "internalType": "uint256",
          "name": "askingPrice",
          "type": "uint256"
        }
      ],
      "name": "itemSold",
      "type": "event"
    },
    {
      "inputs": [
        {
          "internalType": "uint256",
          "name": "",
          "type": "uint256"
        }
      ],
      "name": "itemsForSale",
      "outputs": [
        {
          "internalType": "uint256",
          "name": "id",
          "type": "uint256"
        },
        {
          "internalType": "address",
          "name": "tokenAddress",
          "type": "address"
        },
        {
          "internalType": "uint256",
          "name": "tokenId",
          "type": "uint256"
        },
        {
          "internalType": "address payable",
          "name": "seller",
          "type": "address"
        },
        {
          "internalType": "uint256",
          "name": "askingPrice",
          "type": "uint256"
        },
        {
          "internalType": "bool",
          "name": "isSold",
          "type": "bool"
        }
      ],
      "stateMutability": "view",
      "type": "function",
      "constant": true
    },
    {
      "inputs": [
        {
          "internalType": "uint256",
          "name": "tokenId",
          "type": "uint256"
        },
        {
          "internalType": "address",
          "name": "tokenAddress",
          "type": "address"
        },
        {
          "internalType": "uint256",
          "name": "askingPrice",
          "type": "uint256"
        }
      ],
      "name": "addItemToMarket",
      "outputs": [
        {
          "internalType": "uint256",
          "name": "",
          "type": "uint256"
        }
      ],
      "stateMutability": "nonpayable",
      "type": "function"
    }
  ],
  "bytecode": "0x608060405234801561001057600080fd5b5061090e806100206000396000f3fe608060405234801561001057600080fd5b50600436106100365760003560e01c8063092d0afc1461003b5780634abc220214610070575b600080fd5b6100556004803603810190610050919061066a565b6100a0565b60405161006796959493929190610799565b60405180910390f35b61008a60048036038101906100859190610693565b610139565b604051610097919061077e565b60405180910390f35b600081815481106100b057600080fd5b90600052602060002090600602016000915090508060000154908060010160009054906101000a900473ffffffffffffffffffffffffffffffffffffffff16908060020154908060030160009054906101000a900473ffffffffffffffffffffffffffffffffffffffff16908060040154908060050160009054906101000a900460ff16905086565b6000828460008290503373ffffffffffffffffffffffffffffffffffffffff168173ffffffffffffffffffffffffffffffffffffffff16636352211e846040518263ffffffff1660e01b8152600401610192919061077e565b60206040518083038186803b1580156101aa57600080fd5b505afa1580156101be573d6000803e3d6000fd5b505050506040513d601f19601f820116820180604052508101906101e29190610641565b73ffffffffffffffffffffffffffffffffffffffff161461020257600080fd5b858760008290503073ffffffffffffffffffffffffffffffffffffffff168173ffffffffffffffffffffffffffffffffffffffff1663081812fc846040518263ffffffff1660e01b8152600401610259919061077e565b60206040518083038186803b15801561027157600080fd5b505afa158015610285573d6000803e3d6000fd5b505050506040513d601f19601f820116820180604052508101906102a99190610641565b73ffffffffffffffffffffffffffffffffffffffff16146102c957600080fd5b60001515600160008b73ffffffffffffffffffffffffffffffffffffffff1673ffffffffffffffffffffffffffffffffffffffff16815260200190815260200160002060008c815260200190815260200160002060009054906101000a900460ff1615151461036d576040517f08c379a00000000000000000000000000000000000000000000000000000000081526004016103649061075e565b60405180910390fd5b60008080549050905060006040518060c001604052808381526020018c73ffffffffffffffffffffffffffffffffffffffff1681526020018d81526020013373ffffffffffffffffffffffffffffffffffffffff1681526020018b81526020016000151581525090806001815401808255809150506001900390600052602060002090600602016000909190919091506000820151816000015560208201518160010160006101000a81548173ffffffffffffffffffffffffffffffffffffffff021916908373ffffffffffffffffffffffffffffffffffffffff1602179055506040820151816002015560608201518160030160006101000a81548173ffffffffffffffffffffffffffffffffffffffff021916908373ffffffffffffffffffffffffffffffffffffffff1602179055506080820151816004015560a08201518160050160006101000a81548160ff021916908315150217905550505060018060008c73ffffffffffffffffffffffffffffffffffffffff1673ffffffffffffffffffffffffffffffffffffffff16815260200190815260200160002060008d815260200190815260200160002060006101000a81548160ff021916908315150217905550806000828154811061056e577f4e487b7100000000000000000000000000000000000000000000000000000000600052603260045260246000fd5b906000526020600020906006020160000154146105b4577f4e487b7100000000000000000000000000000000000000000000000000000000600052600160045260246000fd5b7fd3742413e0092c98517699ed9f8567218c740a5a265a7a986d9430d597937522818c8c8c6040516105e994939291906107fa565b60405180910390a1809750505050505050509392505050565b600081359050610611816108aa565b92915050565b600081519050610626816108aa565b92915050565b60008135905061063b816108c1565b92915050565b60006020828403121561065357600080fd5b600061066184828501610617565b91505092915050565b60006020828403121561067c57600080fd5b600061068a8482850161062c565b91505092915050565b6000806000606084860312156106a857600080fd5b60006106b68682870161062c565b93505060206106c786828701610602565b92505060406106d88682870161062c565b9150509250925092565b6106eb81610862565b82525050565b6106fa81610850565b82525050565b61070981610874565b82525050565b600061071c60188361083f565b91507f4974656d20697320616c726561647920666f722073616c6500000000000000006000830152602082019050919050565b610758816108a0565b82525050565b600060208201905081810360008301526107778161070f565b9050919050565b6000602082019050610793600083018461074f565b92915050565b600060c0820190506107ae600083018961074f565b6107bb60208301886106f1565b6107c8604083018761074f565b6107d560608301866106e2565b6107e2608083018561074f565b6107ef60a0830184610700565b979650505050505050565b600060808201905061080f600083018761074f565b61081c602083018661074f565b61082960408301856106f1565b610836606083018461074f565b95945050505050565b600082825260208201905092915050565b600061085b82610880565b9050919050565b600061086d82610880565b9050919050565b60008115159050919050565b600073ffffffffffffffffffffffffffffffffffffffff82169050919050565b6000819050919050565b6108b381610850565b81146108be57600080fd5b50565b6108ca816108a0565b81146108d557600080fd5b5056fea26469706673582212208389f777122a53c6118ea0728275d4fafc7abd3f8619418e21b9215c87ec006664736f6c63430008000033",
  "immutableReferences": {},
  "source": "pragma solidity >=0.4.22 <0.9.0;\nimport \"../node_modules/@openzeppelin/contracts/token/ERC721/IERC721.sol\";\n\ncontract TangibleMarketPlace {\n    struct AuctionItem {\n        uint256 id;\n        address tokenAddress;\n        uint256 tokenId;\n        address payable seller;\n        uint256 askingPrice;\n        bool isSold;\n    }\n    AuctionItem[] public itemsForSale;\n    mapping(address => mapping(uint256 => bool)) activeItems;\n    event itemAdded(\n        uint256 id,\n        uint256 tokenId,\n        address tokenAddress,\n        uint256 askingPrice\n    );\n\n    event itemSold(uint256 id, address buyer, uint256 askingPrice);\n\n    modifier OnlyItemOwner(address tokenAddress, uint256 tokenId) {\n        IERC721 tokenContract = IERC721(tokenAddress);\n        require(tokenContract.ownerOf(tokenId) == msg.sender);\n        _;\n    }\n\n    modifier HasTransferApproval(address tokenAddress, uint256 tokenId) {\n        IERC721 tokenContract = IERC721(tokenAddress);\n        require(tokenContract.getApproved(tokenId) == address(this));\n        _;\n    }\n\n    modifier ItemExists(uint256 id) {\n        require(\n            id < itemsForSale.length && itemsForSale[id].id == id,\n            \"Could not find item\"\n        );\n        _;\n    }\n    modifier IsForSale(uint256 id) {\n        require(itemsForSale[id].isSold == false, \"Item was already sold\");\n        _;\n    }\n\n    function addItemToMarket(\n        uint256 tokenId,\n        address tokenAddress,\n        uint256 askingPrice\n    )\n        external\n        OnlyItemOwner(tokenAddress, tokenId)\n        HasTransferApproval(tokenAddress, tokenId)\n        returns (uint256)\n    {\n        require(\n            activeItems[tokenAddress][tokenId] == false,\n            \"Item is already for sale\"\n        );\n        uint256 newItemId = itemsForSale.length;\n        itemsForSale.push(\n            AuctionItem(\n                newItemId,\n                tokenAddress,\n                tokenId,\n                payable(msg.sender),\n                askingPrice,\n                false\n            )\n        );\n        activeItems[tokenAddress][tokenId] = true;\n        assert(itemsForSale[newItemId].id == newItemId);\n\n        emit itemAdded(newItemId, tokenId, tokenAddress, askingPrice);\n        return newItemId;\n    }\n}\n",
  "sourcePath": "/Users/fabriciopolicarpo/Desktop/Projects/drizzle-react-tutorial/contracts/TangibleMarketPlace.sol",
  "compiler": {
    "name": "solc",
    "version": "0.8.0+commit.c7dfd78e.Emscripten.clang"
  },
  "schemaVersion": "3.4.1",
  "updatedAt": "2021-06-04T02:33:19.115Z",
  "networkType": "ethereum",
  "devdoc": {
    "kind": "dev",
    "methods": {},
    "version": 1
  },
  "userdoc": {
    "kind": "user",
    "methods": {},
    "version": 1
  }
}