{
  "contractName": "Tangible",
  "abi": [
    {
      "inputs": [],
      "stateMutability": "nonpayable",
      "type": "constructor"
    },
    {
      "anonymous": false,
      "inputs": [
        {
          "indexed": true,
          "internalType": "address",
          "name": "owner",
          "type": "address"
        },
        {
          "indexed": true,
          "internalType": "address",
          "name": "approved",
          "type": "address"
        },
        {
          "indexed": true,
          "internalType": "uint256",
          "name": "tokenId",
          "type": "uint256"
        }
      ],
      "name": "Approval",
      "type": "event"
    },
    {
      "anonymous": false,
      "inputs": [
        {
          "indexed": true,
          "internalType": "address",
          "name": "owner",
          "type": "address"
        },
        {
          "indexed": true,
          "internalType": "address",
          "name": "operator",
          "type": "address"
        },
        {
          "indexed": false,
          "internalType": "bool",
          "name": "approved",
          "type": "bool"
        }
      ],
      "name": "ApprovalForAll",
      "type": "event"
    },
    {
      "anonymous": false,
      "inputs": [
        {
          "indexed": false,
          "internalType": "string",
          "name": "uri",
          "type": "string"
        },
        {
          "indexed": false,
          "internalType": "uint256",
          "name": "_tokenId",
          "type": "uint256"
        },
        {
          "indexed": false,
          "internalType": "address",
          "name": "owner",
          "type": "address"
        },
        {
          "indexed": false,
          "internalType": "address",
          "name": "collectible",
          "type": "address"
        }
      ],
      "name": "ItemCreated",
      "type": "event"
    },
    {
      "anonymous": false,
      "inputs": [
        {
          "indexed": true,
          "internalType": "address",
          "name": "from",
          "type": "address"
        },
        {
          "indexed": true,
          "internalType": "address",
          "name": "to",
          "type": "address"
        },
        {
          "indexed": true,
          "internalType": "uint256",
          "name": "tokenId",
          "type": "uint256"
        }
      ],
      "name": "Transfer",
      "type": "event"
    },
    {
      "stateMutability": "payable",
      "type": "fallback",
      "payable": true
    },
    {
      "inputs": [
        {
          "internalType": "address",
          "name": "to",
          "type": "address"
        },
        {
          "internalType": "uint256",
          "name": "tokenId",
          "type": "uint256"
        }
      ],
      "name": "approve",
      "outputs": [],
      "stateMutability": "nonpayable",
      "type": "function"
    },
    {
      "inputs": [
        {
          "internalType": "address",
          "name": "owner",
          "type": "address"
        }
      ],
      "name": "balanceOf",
      "outputs": [
        {
          "internalType": "uint256",
          "name": "",
          "type": "uint256"
        }
      ],
      "stateMutability": "view",
      "type": "function",
      "constant": true
    },
    {
      "inputs": [
        {
          "internalType": "uint256",
          "name": "tokenId",
          "type": "uint256"
        }
      ],
      "name": "getApproved",
      "outputs": [
        {
          "internalType": "address",
          "name": "",
          "type": "address"
        }
      ],
      "stateMutability": "view",
      "type": "function",
      "constant": true
    },
    {
      "inputs": [
        {
          "internalType": "address",
          "name": "owner",
          "type": "address"
        },
        {
          "internalType": "address",
          "name": "operator",
          "type": "address"
        }
      ],
      "name": "isApprovedForAll",
      "outputs": [
        {
          "internalType": "bool",
          "name": "",
          "type": "bool"
        }
      ],
      "stateMutability": "view",
      "type": "function",
      "constant": true
    },
    {
      "inputs": [
        {
          "internalType": "uint256",
          "name": "",
          "type": "uint256"
        }
      ],
      "name": "items",
      "outputs": [
        {
          "internalType": "contract Collectible",
          "name": "collectible",
          "type": "address"
        },
        {
          "internalType": "uint256",
          "name": "id",
          "type": "uint256"
        },
        {
          "internalType": "address",
          "name": "creator",
          "type": "address"
        },
        {
          "internalType": "string",
          "name": "uri",
          "type": "string"
        }
      ],
      "stateMutability": "view",
      "type": "function",
      "constant": true
    },
    {
      "inputs": [],
      "name": "name",
      "outputs": [
        {
          "internalType": "string",
          "name": "",
          "type": "string"
        }
      ],
      "stateMutability": "view",
      "type": "function",
      "constant": true
    },
    {
      "inputs": [
        {
          "internalType": "uint256",
          "name": "tokenId",
          "type": "uint256"
        }
      ],
      "name": "ownerOf",
      "outputs": [
        {
          "internalType": "address",
          "name": "",
          "type": "address"
        }
      ],
      "stateMutability": "view",
      "type": "function",
      "constant": true
    },
    {
      "inputs": [
        {
          "internalType": "address",
          "name": "from",
          "type": "address"
        },
        {
          "internalType": "address",
          "name": "to",
          "type": "address"
        },
        {
          "internalType": "uint256",
          "name": "tokenId",
          "type": "uint256"
        }
      ],
      "name": "safeTransferFrom",
      "outputs": [],
      "stateMutability": "nonpayable",
      "type": "function"
    },
    {
      "inputs": [
        {
          "internalType": "address",
          "name": "from",
          "type": "address"
        },
        {
          "internalType": "address",
          "name": "to",
          "type": "address"
        },
        {
          "internalType": "uint256",
          "name": "tokenId",
          "type": "uint256"
        },
        {
          "internalType": "bytes",
          "name": "_data",
          "type": "bytes"
        }
      ],
      "name": "safeTransferFrom",
      "outputs": [],
      "stateMutability": "nonpayable",
      "type": "function"
    },
    {
      "inputs": [
        {
          "internalType": "address",
          "name": "operator",
          "type": "address"
        },
        {
          "internalType": "bool",
          "name": "approved",
          "type": "bool"
        }
      ],
      "name": "setApprovalForAll",
      "outputs": [],
      "stateMutability": "nonpayable",
      "type": "function"
    },
    {
      "inputs": [
        {
          "internalType": "bytes4",
          "name": "interfaceId",
          "type": "bytes4"
        }
      ],
      "name": "supportsInterface",
      "outputs": [
        {
          "internalType": "bool",
          "name": "",
          "type": "bool"
        }
      ],
      "stateMutability": "view",
      "type": "function",
      "constant": true
    },
    {
      "inputs": [],
      "name": "symbol",
      "outputs": [
        {
          "internalType": "string",
          "name": "",
          "type": "string"
        }
      ],
      "stateMutability": "view",
      "type": "function",
      "constant": true
    },
    {
      "inputs": [
        {
          "internalType": "address",
          "name": "from",
          "type": "address"
        },
        {
          "internalType": "address",
          "name": "to",
          "type": "address"
        },
        {
          "internalType": "uint256",
          "name": "tokenId",
          "type": "uint256"
        }
      ],
      "name": "transferFrom",
      "outputs": [],
      "stateMutability": "nonpayable",
      "type": "function"
    },
    {
      "inputs": [
        {
          "internalType": "string",
          "name": "uri",
          "type": "string"
        }
      ],
      "name": "createItem",
      "outputs": [
        {
          "internalType": "uint256",
          "name": "",
          "type": "uint256"
        }
      ],
      "stateMutability": "nonpayable",
      "type": "function"
    },
    {
      "inputs": [
        {
          "internalType": "uint256",
          "name": "tokenId",
          "type": "uint256"
        }
      ],
      "name": "tokenURI",
      "outputs": [
        {
          "internalType": "string",
          "name": "",
          "type": "string"
        }
      ],
      "stateMutability": "view",
      "type": "function",
      "constant": true
    }
  ],
  "bytecode": "0x60806040523480156200001157600080fd5b506040518060400160405280600881526020017f54616e6769626c650000000000000000000000000000000000000000000000008152506040518060400160405280600481526020017f54414e4700000000000000000000000000000000000000000000000000000000815250816000908051906020019062000096929190620000b8565b508060019080519060200190620000af929190620000b8565b505050620001cd565b828054620000c69062000168565b90600052602060002090601f016020900481019282620000ea576000855562000136565b82601f106200010557805160ff191683800117855562000136565b8280016001018555821562000136579182015b828111156200013557825182559160200191906001019062000118565b5b50905062000145919062000149565b5090565b5b80821115620001645760008160009055506001016200014a565b5090565b600060028204905060018216806200018157607f821691505b602082108114156200019857620001976200019e565b5b50919050565b7f4e487b7100000000000000000000000000000000000000000000000000000000600052602260045260246000fd5b6132a680620001dd6000396000f3fe608060405260043610620001035760003560e01c80636352211e1162000097578063b88d4fde1162000061578063b88d4fde1462000372578063bfb231d214620003a0578063c87b56dd14620003e7578063e985e9c5146200042b5762000104565b80636352211e146200028c57806370a0823114620002d057806395d89b411462000314578063a22cb46514620003445762000104565b8063095ea7b311620000d9578063095ea7b314620001be57806323b872dd14620001ec5780633d54eebb146200021a57806342842e0e146200025e5762000104565b806301ffc9a7146200010657806306fdde03146200014a578063081812fc146200017a5762000104565b5b005b3480156200011357600080fd5b506200013260048036038101906200012c919062001e36565b6200046f565b60405162000141919062002585565b60405180910390f35b3480156200015757600080fd5b506200016262000555565b6040516200017191906200263a565b60405180910390f35b3480156200018757600080fd5b50620001a66004803603810190620001a0919062001ed3565b620005ef565b604051620001b5919062002514565b60405180910390f35b348015620001cb57600080fd5b50620001ea6004803603810190620001e4919062001df5565b62000679565b005b348015620001f957600080fd5b5062000218600480360381019062000212919062001cd9565b620007a2565b005b3480156200022757600080fd5b5062000246600480360381019062000240919062001e8e565b6200080b565b6040516200025591906200288e565b60405180910390f35b3480156200026b57600080fd5b506200028a600480360381019062000284919062001cd9565b62000a0f565b005b3480156200029957600080fd5b50620002b86004803603810190620002b2919062001ed3565b62000a31565b604051620002c7919062002514565b60405180910390f35b348015620002dd57600080fd5b50620002fc6004803603810190620002f6919062001c6c565b62000ae6565b6040516200030b91906200288e565b60405180910390f35b3480156200032157600080fd5b506200032c62000ba1565b6040516200033b91906200263a565b60405180910390f35b3480156200035157600080fd5b506200037060048036038101906200036a919062001db4565b62000c3b565b005b3480156200037f57600080fd5b506200039e600480360381019062000398919062001d2f565b62000dc7565b005b348015620003ad57600080fd5b50620003cc6004803603810190620003c6919062001ed3565b62000e32565b604051620003de9493929190620025a2565b60405180910390f35b348015620003f457600080fd5b506200041360048036038101906200040d919062001ed3565b62000f32565b6040516200042291906200263a565b60405180910390f35b3480156200043857600080fd5b5062000457600480360381019062000451919062001c98565b6200102f565b60405162000466919062002585565b60405180910390f35b60007f80ac58cd000000000000000000000000000000000000000000000000000000007bffffffffffffffffffffffffffffffffffffffffffffffffffffffff1916827bffffffffffffffffffffffffffffffffffffffffffffffffffffffff191614806200053b57507f5b5e139f000000000000000000000000000000000000000000000000000000007bffffffffffffffffffffffffffffffffffffffffffffffffffffffff1916827bffffffffffffffffffffffffffffffffffffffffffffffffffffffff1916145b806200054e57506200054d82620010c3565b5b9050919050565b606060008054620005669062002b20565b80601f0160208091040260200160405190810160405280929190818152602001828054620005949062002b20565b8015620005e55780601f10620005b957610100808354040283529160200191620005e5565b820191906000526020600020905b815481529060010190602001808311620005c757829003601f168201915b5050505050905090565b6000620005fc826200112d565b6200063e576040517f08c379a00000000000000000000000000000000000000000000000000000000081526004016200063590620027e4565b60405180910390fd5b6004600083815260200190815260200160002060009054906101000a900473ffffffffffffffffffffffffffffffffffffffff169050919050565b6000620006868262000a31565b90508073ffffffffffffffffffffffffffffffffffffffff168373ffffffffffffffffffffffffffffffffffffffff161415620006fa576040517f08c379a0000000000000000000000000000000000000000000000000000000008152600401620006f1906200284a565b60405180910390fd5b8073ffffffffffffffffffffffffffffffffffffffff166200071b62001199565b73ffffffffffffffffffffffffffffffffffffffff1614806200074f57506200074e816200074862001199565b6200102f565b5b62000791576040517f08c379a000000000000000000000000000000000000000000000000000000000815260040162000788906200275c565b60405180910390fd5b6200079d8383620011a1565b505050565b620007b7620007b062001199565b826200125c565b620007f9576040517f08c379a0000000000000000000000000000000000000000000000000000000008152600401620007f0906200286c565b60405180910390fd5b6200080683838362001347565b505050565b6000620008196006620015b3565b6000620008276006620015c9565b905060003082856040516200083c9062001a57565b6200084a93929190620025f6565b604051809103906000f08015801562000867573d6000803e3d6000fd5b509050620008763383620015d7565b60405180608001604052808273ffffffffffffffffffffffffffffffffffffffff1681526020018381526020013373ffffffffffffffffffffffffffffffffffffffff168152602001858152506007600084815260200190815260200160002060008201518160000160006101000a81548173ffffffffffffffffffffffffffffffffffffffff021916908373ffffffffffffffffffffffffffffffffffffffff1602179055506020820151816001015560408201518160020160006101000a81548173ffffffffffffffffffffffffffffffffffffffff021916908373ffffffffffffffffffffffffffffffffffffffff16021790555060608201518160030190805190602001906200098c92919062001a65565b509050507fcc796c0aa6c7b633d05c9f78af82ef950ca533d69f24c13ec78576a6e93aeae78483336007600087815260200190815260200160002060000160009054906101000a900473ffffffffffffffffffffffffffffffffffffffff16604051620009fd94939291906200265e565b60405180910390a18192505050919050565b62000a2c8383836040518060200160405280600081525062000dc7565b505050565b6000806002600084815260200190815260200160002060009054906101000a900473ffffffffffffffffffffffffffffffffffffffff169050600073ffffffffffffffffffffffffffffffffffffffff168173ffffffffffffffffffffffffffffffffffffffff16141562000add576040517f08c379a000000000000000000000000000000000000000000000000000000000815260040162000ad490620027a0565b60405180910390fd5b80915050919050565b60008073ffffffffffffffffffffffffffffffffffffffff168273ffffffffffffffffffffffffffffffffffffffff16141562000b5a576040517f08c379a000000000000000000000000000000000000000000000000000000000815260040162000b51906200277e565b60405180910390fd5b600360008373ffffffffffffffffffffffffffffffffffffffff1673ffffffffffffffffffffffffffffffffffffffff168152602001908152602001600020549050919050565b60606001805462000bb29062002b20565b80601f016020809104026020016040519081016040528092919081815260200182805462000be09062002b20565b801562000c315780601f1062000c055761010080835404028352916020019162000c31565b820191906000526020600020905b81548152906001019060200180831162000c1357829003601f168201915b5050505050905090565b62000c4562001199565b73ffffffffffffffffffffffffffffffffffffffff168273ffffffffffffffffffffffffffffffffffffffff16141562000cb6576040517f08c379a000000000000000000000000000000000000000000000000000000000815260040162000cad9062002718565b60405180910390fd5b806005600062000cc562001199565b73ffffffffffffffffffffffffffffffffffffffff1673ffffffffffffffffffffffffffffffffffffffff16815260200190815260200160002060008473ffffffffffffffffffffffffffffffffffffffff1673ffffffffffffffffffffffffffffffffffffffff16815260200190815260200160002060006101000a81548160ff0219169083151502179055508173ffffffffffffffffffffffffffffffffffffffff1662000d7462001199565b73ffffffffffffffffffffffffffffffffffffffff167f17307eab39ab6107e8899845ad3d59bd9653f200f220920489ca2b5937696c318360405162000dbb919062002585565b60405180910390a35050565b62000ddc62000dd562001199565b836200125c565b62000e1e576040517f08c379a000000000000000000000000000000000000000000000000000000000815260040162000e15906200286c565b60405180910390fd5b62000e2c84848484620015f7565b50505050565b60076020528060005260406000206000915090508060000160009054906101000a900473ffffffffffffffffffffffffffffffffffffffff16908060010154908060020160009054906101000a900473ffffffffffffffffffffffffffffffffffffffff169080600301805462000ea99062002b20565b80601f016020809104026020016040519081016040528092919081815260200182805462000ed79062002b20565b801562000f285780601f1062000efc5761010080835404028352916020019162000f28565b820191906000526020600020905b81548152906001019060200180831162000f0a57829003601f168201915b5050505050905084565b606062000f3f826200112d565b62000f81576040517f08c379a000000000000000000000000000000000000000000000000000000000815260040162000f789062002828565b60405180910390fd5b60076000838152602001908152602001600020600301805462000fa49062002b20565b80601f016020809104026020016040519081016040528092919081815260200182805462000fd29062002b20565b8015620010235780601f1062000ff75761010080835404028352916020019162001023565b820191906000526020600020905b8154815290600101906020018083116200100557829003601f168201915b50505050509050919050565b6000600560008473ffffffffffffffffffffffffffffffffffffffff1673ffffffffffffffffffffffffffffffffffffffff16815260200190815260200160002060008373ffffffffffffffffffffffffffffffffffffffff1673ffffffffffffffffffffffffffffffffffffffff16815260200190815260200160002060009054906101000a900460ff16905092915050565b60007f01ffc9a7000000000000000000000000000000000000000000000000000000007bffffffffffffffffffffffffffffffffffffffffffffffffffffffff1916827bffffffffffffffffffffffffffffffffffffffffffffffffffffffff1916149050919050565b60008073ffffffffffffffffffffffffffffffffffffffff166002600084815260200190815260200160002060009054906101000a900473ffffffffffffffffffffffffffffffffffffffff1673ffffffffffffffffffffffffffffffffffffffff1614159050919050565b600033905090565b816004600083815260200190815260200160002060006101000a81548173ffffffffffffffffffffffffffffffffffffffff021916908373ffffffffffffffffffffffffffffffffffffffff160217905550808273ffffffffffffffffffffffffffffffffffffffff16620012168362000a31565b73ffffffffffffffffffffffffffffffffffffffff167f8c5be1e5ebec7d5bd14f71427d1e84f3dd0314c0f7b2291e5b200ac8c7c3b92560405160405180910390a45050565b600062001269826200112d565b620012ab576040517f08c379a0000000000000000000000000000000000000000000000000000000008152600401620012a2906200273a565b60405180910390fd5b6000620012b88362000a31565b90508073ffffffffffffffffffffffffffffffffffffffff168473ffffffffffffffffffffffffffffffffffffffff1614806200132a57508373ffffffffffffffffffffffffffffffffffffffff166200131284620005ef565b73ffffffffffffffffffffffffffffffffffffffff16145b806200133e57506200133d81856200102f565b5b91505092915050565b8273ffffffffffffffffffffffffffffffffffffffff16620013698262000a31565b73ffffffffffffffffffffffffffffffffffffffff1614620013c2576040517f08c379a0000000000000000000000000000000000000000000000000000000008152600401620013b99062002806565b60405180910390fd5b600073ffffffffffffffffffffffffffffffffffffffff168273ffffffffffffffffffffffffffffffffffffffff16141562001435576040517f08c379a00000000000000000000000000000000000000000000000000000000081526004016200142c90620026f6565b60405180910390fd5b620014428383836200165a565b6200144f600082620011a1565b6001600360008573ffffffffffffffffffffffffffffffffffffffff1673ffffffffffffffffffffffffffffffffffffffff1681526020019081526020016000206000828254620014a19190620029da565b925050819055506001600360008473ffffffffffffffffffffffffffffffffffffffff1673ffffffffffffffffffffffffffffffffffffffff1681526020019081526020016000206000828254620014fa91906200297d565b92505081905550816002600083815260200190815260200160002060006101000a81548173ffffffffffffffffffffffffffffffffffffffff021916908373ffffffffffffffffffffffffffffffffffffffff160217905550808273ffffffffffffffffffffffffffffffffffffffff168473ffffffffffffffffffffffffffffffffffffffff167fddf252ad1be2c89b69c2b068fc378daa952ba7f163c4a11628f55a4df523b3ef60405160405180910390a4505050565b6001816000016000828254019250508190555050565b600081600001549050919050565b620015f38282604051806020016040528060008152506200165f565b5050565b6200160484848462001347565b6200161284848484620016c1565b62001654576040517f08c379a00000000000000000000000000000000000000000000000000000000081526004016200164b90620026b2565b60405180910390fd5b50505050565b505050565b6200166b83836200186a565b6200167a6000848484620016c1565b620016bc576040517f08c379a0000000000000000000000000000000000000000000000000000000008152600401620016b390620026b2565b60405180910390fd5b505050565b6000620016e48473ffffffffffffffffffffffffffffffffffffffff1662001a44565b156200185d578373ffffffffffffffffffffffffffffffffffffffff1663150b7a026200171062001199565b8786866040518563ffffffff1660e01b815260040162001734949392919062002531565b602060405180830381600087803b1580156200174f57600080fd5b505af19250505080156200178357506040513d601f19601f8201168201806040525081019062001780919062001e62565b60015b6200180c573d8060008114620017b6576040519150601f19603f3d011682016040523d82523d6000602084013e620017bb565b606091505b5060008151141562001804576040517f08c379a0000000000000000000000000000000000000000000000000000000008152600401620017fb90620026b2565b60405180910390fd5b805181602001fd5b63150b7a0260e01b7bffffffffffffffffffffffffffffffffffffffffffffffffffffffff1916817bffffffffffffffffffffffffffffffffffffffffffffffffffffffff19161491505062001862565b600190505b949350505050565b600073ffffffffffffffffffffffffffffffffffffffff168273ffffffffffffffffffffffffffffffffffffffff161415620018dd576040517f08c379a0000000000000000000000000000000000000000000000000000000008152600401620018d490620027c2565b60405180910390fd5b620018e8816200112d565b156200192b576040517f08c379a00000000000000000000000000000000000000000000000000000000081526004016200192290620026d4565b60405180910390fd5b62001939600083836200165a565b6001600360008473ffffffffffffffffffffffffffffffffffffffff1673ffffffffffffffffffffffffffffffffffffffff16815260200190815260200160002060008282546200198b91906200297d565b92505081905550816002600083815260200190815260200160002060006101000a81548173ffffffffffffffffffffffffffffffffffffffff021916908373ffffffffffffffffffffffffffffffffffffffff160217905550808273ffffffffffffffffffffffffffffffffffffffff16600073ffffffffffffffffffffffffffffffffffffffff167fddf252ad1be2c89b69c2b068fc378daa952ba7f163c4a11628f55a4df523b3ef60405160405180910390a45050565b600080823b905060008111915050919050565b6106148062002c5d83390190565b82805462001a739062002b20565b90600052602060002090601f01602090048101928262001a97576000855562001ae3565b82601f1062001ab257805160ff191683800117855562001ae3565b8280016001018555821562001ae3579182015b8281111562001ae257825182559160200191906001019062001ac5565b5b50905062001af2919062001af6565b5090565b5b8082111562001b1157600081600090555060010162001af7565b5090565b600062001b2c62001b2684620028df565b620028ab565b90508281526020810184848401111562001b4557600080fd5b62001b5284828562002adb565b509392505050565b600062001b7162001b6b8462002912565b620028ab565b90508281526020810184848401111562001b8a57600080fd5b62001b9784828562002adb565b509392505050565b60008135905062001bb08162002bf4565b92915050565b60008135905062001bc78162002c0e565b92915050565b60008135905062001bde8162002c28565b92915050565b60008151905062001bf58162002c28565b92915050565b600082601f83011262001c0d57600080fd5b813562001c1f84826020860162001b15565b91505092915050565b600082601f83011262001c3a57600080fd5b813562001c4c84826020860162001b5a565b91505092915050565b60008135905062001c668162002c42565b92915050565b60006020828403121562001c7f57600080fd5b600062001c8f8482850162001b9f565b91505092915050565b6000806040838503121562001cac57600080fd5b600062001cbc8582860162001b9f565b925050602062001ccf8582860162001b9f565b9150509250929050565b60008060006060848603121562001cef57600080fd5b600062001cff8682870162001b9f565b935050602062001d128682870162001b9f565b925050604062001d258682870162001c55565b9150509250925092565b6000806000806080858703121562001d4657600080fd5b600062001d568782880162001b9f565b945050602062001d698782880162001b9f565b935050604062001d7c8782880162001c55565b925050606085013567ffffffffffffffff81111562001d9a57600080fd5b62001da88782880162001bfb565b91505092959194509250565b6000806040838503121562001dc857600080fd5b600062001dd88582860162001b9f565b925050602062001deb8582860162001bb6565b9150509250929050565b6000806040838503121562001e0957600080fd5b600062001e198582860162001b9f565b925050602062001e2c8582860162001c55565b9150509250929050565b60006020828403121562001e4957600080fd5b600062001e598482850162001bcd565b91505092915050565b60006020828403121562001e7557600080fd5b600062001e858482850162001be4565b91505092915050565b60006020828403121562001ea157600080fd5b600082013567ffffffffffffffff81111562001ebc57600080fd5b62001eca8482850162001c28565b91505092915050565b60006020828403121562001ee657600080fd5b600062001ef68482850162001c55565b91505092915050565b62001f0a8162002a15565b82525050565b62001f1b8162002a29565b82525050565b600062001f2e8262002945565b62001f3a81856200295b565b935062001f4c81856020860162002aea565b62001f578162002be3565b840191505092915050565b62001f6d8162002a8b565b82525050565b62001f7e8162002ab3565b82525050565b600062001f918262002950565b62001f9d81856200296c565b935062001faf81856020860162002aea565b62001fba8162002be3565b840191505092915050565b600062001fd46032836200296c565b91507f4552433732313a207472616e7366657220746f206e6f6e20455243373231526560008301527f63656976657220696d706c656d656e74657200000000000000000000000000006020830152604082019050919050565b60006200203c601c836200296c565b91507f4552433732313a20746f6b656e20616c7265616479206d696e746564000000006000830152602082019050919050565b60006200207e6024836200296c565b91507f4552433732313a207472616e7366657220746f20746865207a65726f2061646460008301527f72657373000000000000000000000000000000000000000000000000000000006020830152604082019050919050565b6000620020e66019836200296c565b91507f4552433732313a20617070726f766520746f2063616c6c6572000000000000006000830152602082019050919050565b600062002128602c836200296c565b91507f4552433732313a206f70657261746f7220717565727920666f72206e6f6e657860008301527f697374656e7420746f6b656e00000000000000000000000000000000000000006020830152604082019050919050565b6000620021906038836200296c565b91507f4552433732313a20617070726f76652063616c6c6572206973206e6f74206f7760008301527f6e6572206e6f7220617070726f76656420666f7220616c6c00000000000000006020830152604082019050919050565b6000620021f8602a836200296c565b91507f4552433732313a2062616c616e636520717565727920666f7220746865207a6560008301527f726f2061646472657373000000000000000000000000000000000000000000006020830152604082019050919050565b6000620022606029836200296c565b91507f4552433732313a206f776e657220717565727920666f72206e6f6e657869737460008301527f656e7420746f6b656e00000000000000000000000000000000000000000000006020830152604082019050919050565b6000620022c86020836200296c565b91507f4552433732313a206d696e7420746f20746865207a65726f20616464726573736000830152602082019050919050565b60006200230a602c836200296c565b91507f4552433732313a20617070726f76656420717565727920666f72206e6f6e657860008301527f697374656e7420746f6b656e00000000000000000000000000000000000000006020830152604082019050919050565b6000620023726029836200296c565b91507f4552433732313a207472616e73666572206f6620746f6b656e2074686174206960008301527f73206e6f74206f776e00000000000000000000000000000000000000000000006020830152604082019050919050565b6000620023da602f836200296c565b91507f4552433732314d657461646174613a2055524920717565727920666f72206e6f60008301527f6e6578697374656e7420746f6b656e00000000000000000000000000000000006020830152604082019050919050565b6000620024426021836200296c565b91507f4552433732313a20617070726f76616c20746f2063757272656e74206f776e6560008301527f72000000000000000000000000000000000000000000000000000000000000006020830152604082019050919050565b6000620024aa6031836200296c565b91507f4552433732313a207472616e736665722063616c6c6572206973206e6f74206f60008301527f776e6572206e6f7220617070726f7665640000000000000000000000000000006020830152604082019050919050565b6200250e8162002a81565b82525050565b60006020820190506200252b600083018462001eff565b92915050565b600060808201905062002548600083018762001eff565b62002557602083018662001eff565b62002566604083018562002503565b81810360608301526200257a818462001f21565b905095945050505050565b60006020820190506200259c600083018462001f10565b92915050565b6000608082019050620025b9600083018762001f62565b620025c8602083018662002503565b620025d7604083018562001eff565b8181036060830152620025eb818462001f84565b905095945050505050565b60006060820190506200260d600083018662001f73565b6200261c602083018562002503565b818103604083015262002630818462001f84565b9050949350505050565b6000602082019050818103600083015262002656818462001f84565b905092915050565b600060808201905081810360008301526200267a818762001f84565b90506200268b602083018662002503565b6200269a604083018562001eff565b620026a9606083018462001eff565b95945050505050565b60006020820190508181036000830152620026cd8162001fc5565b9050919050565b60006020820190508181036000830152620026ef816200202d565b9050919050565b6000602082019050818103600083015262002711816200206f565b9050919050565b600060208201905081810360008301526200273381620020d7565b9050919050565b60006020820190508181036000830152620027558162002119565b9050919050565b60006020820190508181036000830152620027778162002181565b9050919050565b600060208201905081810360008301526200279981620021e9565b9050919050565b60006020820190508181036000830152620027bb8162002251565b9050919050565b60006020820190508181036000830152620027dd81620022b9565b9050919050565b60006020820190508181036000830152620027ff81620022fb565b9050919050565b60006020820190508181036000830152620028218162002363565b9050919050565b600060208201905081810360008301526200284381620023cb565b9050919050565b60006020820190508181036000830152620028658162002433565b9050919050565b6000602082019050818103600083015262002887816200249b565b9050919050565b6000602082019050620028a5600083018462002503565b92915050565b6000604051905081810181811067ffffffffffffffff82111715620028d557620028d462002bb4565b5b8060405250919050565b600067ffffffffffffffff821115620028fd57620028fc62002bb4565b5b601f19601f8301169050602081019050919050565b600067ffffffffffffffff82111562002930576200292f62002bb4565b5b601f19601f8301169050602081019050919050565b600081519050919050565b600081519050919050565b600082825260208201905092915050565b600082825260208201905092915050565b60006200298a8262002a81565b9150620029978362002a81565b9250827fffffffffffffffffffffffffffffffffffffffffffffffffffffffffffffffff03821115620029cf57620029ce62002b56565b5b828201905092915050565b6000620029e78262002a81565b9150620029f48362002a81565b92508282101562002a0a5762002a0962002b56565b5b828203905092915050565b600062002a228262002a61565b9050919050565b60008115159050919050565b60007fffffffff0000000000000000000000000000000000000000000000000000000082169050919050565b600073ffffffffffffffffffffffffffffffffffffffff82169050919050565b6000819050919050565b600062002a988262002a9f565b9050919050565b600062002aac8262002a61565b9050919050565b600062002ac08262002ac7565b9050919050565b600062002ad48262002a61565b9050919050565b82818337600083830152505050565b60005b8381101562002b0a57808201518184015260208101905062002aed565b8381111562002b1a576000848401525b50505050565b6000600282049050600182168062002b3957607f821691505b6020821081141562002b505762002b4f62002b85565b5b50919050565b7f4e487b7100000000000000000000000000000000000000000000000000000000600052601160045260246000fd5b7f4e487b7100000000000000000000000000000000000000000000000000000000600052602260045260246000fd5b7f4e487b7100000000000000000000000000000000000000000000000000000000600052604160045260246000fd5b6000601f19601f8301169050919050565b62002bff8162002a15565b811462002c0b57600080fd5b50565b62002c198162002a29565b811462002c2557600080fd5b50565b62002c338162002a35565b811462002c3f57600080fd5b50565b62002c4d8162002a81565b811462002c5957600080fd5b5056fe608060405234801561001057600080fd5b50604051610614380380610614833981810160405281019061003291906101ce565b82600260006101000a81548173ffffffffffffffffffffffffffffffffffffffff021916908373ffffffffffffffffffffffffffffffffffffffff160217905550816001819055508060009080519060200190610090929190610099565b505050506103d5565b8280546100a590610317565b90600052602060002090601f0160209004810192826100c7576000855561010e565b82601f106100e057805160ff191683800117855561010e565b8280016001018555821561010e579182015b8281111561010d5782518255916020019190600101906100f2565b5b50905061011b919061011f565b5090565b5b80821115610138576000816000905550600101610120565b5090565b600061014f61014a84610266565b610235565b90508281526020810184848401111561016757600080fd5b6101728482856102e4565b509392505050565b600081519050610189816103a7565b92915050565b600082601f8301126101a057600080fd5b81516101b084826020860161013c565b91505092915050565b6000815190506101c8816103be565b92915050565b6000806000606084860312156101e357600080fd5b60006101f18682870161017a565b9350506020610202868287016101b9565b925050604084015167ffffffffffffffff81111561021f57600080fd5b61022b8682870161018f565b9150509250925092565b6000604051905081810181811067ffffffffffffffff8211171561025c5761025b610378565b5b8060405250919050565b600067ffffffffffffffff82111561028157610280610378565b5b601f19601f8301169050602081019050919050565b60006102a1826102ba565b9050919050565b60006102b382610296565b9050919050565b600073ffffffffffffffffffffffffffffffffffffffff82169050919050565b6000819050919050565b60005b838110156103025780820151818401526020810190506102e7565b83811115610311576000848401525b50505050565b6000600282049050600182168061032f57607f821691505b6020821081141561034357610342610349565b5b50919050565b7f4e487b7100000000000000000000000000000000000000000000000000000000600052602260045260246000fd5b7f4e487b7100000000000000000000000000000000000000000000000000000000600052604160045260246000fd5b6103b0816102a8565b81146103bb57600080fd5b50565b6103c7816102da565b81146103d257600080fd5b50565b610230806103e46000396000f3fe6080604052600436106100225760003560e01c8063eac989f81461002557610023565b5b005b34801561003157600080fd5b5061003a610050565b6040516100479190610117565b60405180910390f35b6000805461005d90610188565b80601f016020809104026020016040519081016040528092919081815260200182805461008990610188565b80156100d65780601f106100ab576101008083540402835291602001916100d6565b820191906000526020600020905b8154815290600101906020018083116100b957829003601f168201915b505050505081565b60006100e982610139565b6100f38185610144565b9350610103818560208601610155565b61010c816101e9565b840191505092915050565b6000602082019050818103600083015261013181846100de565b905092915050565b600081519050919050565b600082825260208201905092915050565b60005b83811015610173578082015181840152602081019050610158565b83811115610182576000848401525b50505050565b600060028204905060018216806101a057607f821691505b602082108114156101b4576101b36101ba565b5b50919050565b7f4e487b7100000000000000000000000000000000000000000000000000000000600052602260045260246000fd5b6000601f19601f830116905091905056fea2646970667358221220db901917eb377164bb6ab4772cb75a6ff38243b0390aa5d7cb7b86a99ec5dab464736f6c63430008000033a26469706673582212209403e2be03ebdb4a07fc5359af94d56d81dba12de652d5b9c0564c427c8e5a0564736f6c63430008000033",
  "immutableReferences": {},
  "source": "// SPDX-License-Identifier: MIT\npragma solidity >=0.4.22 <0.9.0;\nimport \"../node_modules/@openzeppelin/contracts/token/ERC721/ERC721.sol\";\nimport \"../node_modules/@openzeppelin/contracts/utils/Counters.sol\";\nimport \"./Collectible.sol\";\n\ncontract Tangible is ERC721 {\n    using Counters for Counters.Counter;\n    Counters.Counter private _tokenIds;\n\n    struct Item {\n        Collectible collectible;\n        uint256 id;\n        address creator;\n        string uri;\n    }\n\n    constructor() ERC721(\"Tangible\", \"TANG\") {}\n\n    mapping(uint256 => Item) public items;\n    event ItemCreated(\n        string uri,\n        uint256 _tokenId,\n        address owner,\n        address collectible\n    );\n\n    function createItem(string memory uri) public returns (uint256) {\n        // increment token id\n\n        _tokenIds.increment();\n        // get id of the newly created token\n        uint256 _tokenId = _tokenIds.current();\n        // mint the token\n        Collectible _collectible = new Collectible(this, _tokenId, uri);\n        _safeMint(msg.sender, _tokenId);\n        items[_tokenId] = Item(_collectible, _tokenId, msg.sender, uri);\n        // emit event showing the uri, the token id and the address of the owner\n        emit ItemCreated(\n            uri,\n            _tokenId,\n            msg.sender,\n            address(items[_tokenId].collectible)\n        );\n        return _tokenId;\n    }\n\n    function tokenURI(uint256 tokenId)\n        public\n        view\n        override\n        returns (string memory)\n    {\n        require(\n            _exists(tokenId),\n            \"ERC721Metadata: URI query for nonexistent token\"\n        );\n        return items[tokenId].uri;\n    }\n\n    fallback() external payable {}\n}\n\n// /Users/fabriciopolicarpo/Desktop/Projects/drizzle-react-tutorial/node_modules/@openzeppelin/contracts/token/ERC20/IERC20.sol\n",
  "sourcePath": "/Users/fabriciopolicarpo/Desktop/Projects/drizzle-react-tutorial/contracts/Tangible.sol",
  "compiler": {
    "name": "solc",
    "version": "0.8.0+commit.c7dfd78e.Emscripten.clang"
  },
  "schemaVersion": "3.4.1",
  "updatedAt": "2021-05-30T03:46:37.693Z",
  "networkType": "ethereum",
  "devdoc": {
    "kind": "dev",
    "methods": {
      "approve(address,uint256)": {
        "details": "See {IERC721-approve}."
      },
      "balanceOf(address)": {
        "details": "See {IERC721-balanceOf}."
      },
      "getApproved(uint256)": {
        "details": "See {IERC721-getApproved}."
      },
      "isApprovedForAll(address,address)": {
        "details": "See {IERC721-isApprovedForAll}."
      },
      "name()": {
        "details": "See {IERC721Metadata-name}."
      },
      "ownerOf(uint256)": {
        "details": "See {IERC721-ownerOf}."
      },
      "safeTransferFrom(address,address,uint256)": {
        "details": "See {IERC721-safeTransferFrom}."
      },
      "safeTransferFrom(address,address,uint256,bytes)": {
        "details": "See {IERC721-safeTransferFrom}."
      },
      "setApprovalForAll(address,bool)": {
        "details": "See {IERC721-setApprovalForAll}."
      },
      "supportsInterface(bytes4)": {
        "details": "See {IERC165-supportsInterface}."
      },
      "symbol()": {
        "details": "See {IERC721Metadata-symbol}."
      },
      "tokenURI(uint256)": {
        "details": "See {IERC721Metadata-tokenURI}."
      },
      "transferFrom(address,address,uint256)": {
        "details": "See {IERC721-transferFrom}."
      }
    },
    "version": 1
  },
  "userdoc": {
    "kind": "user",
    "methods": {},
    "version": 1
  }
}