{
  "contractName": "Tangible",
  "abi": [
    {
      "inputs": [],
      "stateMutability": "nonpayable",
      "type": "constructor"
    },
    {
      "anonymous": false,
      "inputs": [
        {
          "indexed": true,
          "internalType": "address",
          "name": "owner",
          "type": "address"
        },
        {
          "indexed": true,
          "internalType": "address",
          "name": "approved",
          "type": "address"
        },
        {
          "indexed": true,
          "internalType": "uint256",
          "name": "tokenId",
          "type": "uint256"
        }
      ],
      "name": "Approval",
      "type": "event"
    },
    {
      "anonymous": false,
      "inputs": [
        {
          "indexed": true,
          "internalType": "address",
          "name": "owner",
          "type": "address"
        },
        {
          "indexed": true,
          "internalType": "address",
          "name": "operator",
          "type": "address"
        },
        {
          "indexed": false,
          "internalType": "bool",
          "name": "approved",
          "type": "bool"
        }
      ],
      "name": "ApprovalForAll",
      "type": "event"
    },
    {
      "anonymous": false,
      "inputs": [
        {
          "indexed": false,
          "internalType": "string",
          "name": "uri",
          "type": "string"
        },
        {
          "indexed": false,
          "internalType": "uint256",
          "name": "_tokenId",
          "type": "uint256"
        },
        {
          "indexed": false,
          "internalType": "address",
          "name": "owner",
          "type": "address"
        },
        {
          "indexed": false,
          "internalType": "address",
          "name": "collectible",
          "type": "address"
        }
      ],
      "name": "ItemCreated",
      "type": "event"
    },
    {
      "anonymous": false,
      "inputs": [
        {
          "indexed": true,
          "internalType": "address",
          "name": "from",
          "type": "address"
        },
        {
          "indexed": true,
          "internalType": "address",
          "name": "to",
          "type": "address"
        },
        {
          "indexed": true,
          "internalType": "uint256",
          "name": "tokenId",
          "type": "uint256"
        }
      ],
      "name": "Transfer",
      "type": "event"
    },
    {
      "inputs": [
        {
          "internalType": "address",
          "name": "to",
          "type": "address"
        },
        {
          "internalType": "uint256",
          "name": "tokenId",
          "type": "uint256"
        }
      ],
      "name": "approve",
      "outputs": [],
      "stateMutability": "nonpayable",
      "type": "function"
    },
    {
      "inputs": [
        {
          "internalType": "address",
          "name": "owner",
          "type": "address"
        }
      ],
      "name": "balanceOf",
      "outputs": [
        {
          "internalType": "uint256",
          "name": "",
          "type": "uint256"
        }
      ],
      "stateMutability": "view",
      "type": "function",
      "constant": true
    },
    {
      "inputs": [
        {
          "internalType": "uint256",
          "name": "tokenId",
          "type": "uint256"
        }
      ],
      "name": "getApproved",
      "outputs": [
        {
          "internalType": "address",
          "name": "",
          "type": "address"
        }
      ],
      "stateMutability": "view",
      "type": "function",
      "constant": true
    },
    {
      "inputs": [
        {
          "internalType": "address",
          "name": "owner",
          "type": "address"
        },
        {
          "internalType": "address",
          "name": "operator",
          "type": "address"
        }
      ],
      "name": "isApprovedForAll",
      "outputs": [
        {
          "internalType": "bool",
          "name": "",
          "type": "bool"
        }
      ],
      "stateMutability": "view",
      "type": "function",
      "constant": true
    },
    {
      "inputs": [
        {
          "internalType": "uint256",
          "name": "",
          "type": "uint256"
        }
      ],
      "name": "items",
      "outputs": [
        {
          "internalType": "contract Collectible",
          "name": "collectible",
          "type": "address"
        },
        {
          "internalType": "uint256",
          "name": "id",
          "type": "uint256"
        },
        {
          "internalType": "address",
          "name": "creator",
          "type": "address"
        },
        {
          "internalType": "string",
          "name": "uri",
          "type": "string"
        }
      ],
      "stateMutability": "view",
      "type": "function",
      "constant": true
    },
    {
      "inputs": [],
      "name": "name",
      "outputs": [
        {
          "internalType": "string",
          "name": "",
          "type": "string"
        }
      ],
      "stateMutability": "view",
      "type": "function",
      "constant": true
    },
    {
      "inputs": [
        {
          "internalType": "uint256",
          "name": "tokenId",
          "type": "uint256"
        }
      ],
      "name": "ownerOf",
      "outputs": [
        {
          "internalType": "address",
          "name": "",
          "type": "address"
        }
      ],
      "stateMutability": "view",
      "type": "function",
      "constant": true
    },
    {
      "inputs": [
        {
          "internalType": "address",
          "name": "from",
          "type": "address"
        },
        {
          "internalType": "address",
          "name": "to",
          "type": "address"
        },
        {
          "internalType": "uint256",
          "name": "tokenId",
          "type": "uint256"
        }
      ],
      "name": "safeTransferFrom",
      "outputs": [],
      "stateMutability": "nonpayable",
      "type": "function"
    },
    {
      "inputs": [
        {
          "internalType": "address",
          "name": "from",
          "type": "address"
        },
        {
          "internalType": "address",
          "name": "to",
          "type": "address"
        },
        {
          "internalType": "uint256",
          "name": "tokenId",
          "type": "uint256"
        },
        {
          "internalType": "bytes",
          "name": "_data",
          "type": "bytes"
        }
      ],
      "name": "safeTransferFrom",
      "outputs": [],
      "stateMutability": "nonpayable",
      "type": "function"
    },
    {
      "inputs": [
        {
          "internalType": "address",
          "name": "operator",
          "type": "address"
        },
        {
          "internalType": "bool",
          "name": "approved",
          "type": "bool"
        }
      ],
      "name": "setApprovalForAll",
      "outputs": [],
      "stateMutability": "nonpayable",
      "type": "function"
    },
    {
      "inputs": [
        {
          "internalType": "bytes4",
          "name": "interfaceId",
          "type": "bytes4"
        }
      ],
      "name": "supportsInterface",
      "outputs": [
        {
          "internalType": "bool",
          "name": "",
          "type": "bool"
        }
      ],
      "stateMutability": "view",
      "type": "function",
      "constant": true
    },
    {
      "inputs": [],
      "name": "symbol",
      "outputs": [
        {
          "internalType": "string",
          "name": "",
          "type": "string"
        }
      ],
      "stateMutability": "view",
      "type": "function",
      "constant": true
    },
    {
      "inputs": [
        {
          "internalType": "address",
          "name": "from",
          "type": "address"
        },
        {
          "internalType": "address",
          "name": "to",
          "type": "address"
        },
        {
          "internalType": "uint256",
          "name": "tokenId",
          "type": "uint256"
        }
      ],
      "name": "transferFrom",
      "outputs": [],
      "stateMutability": "nonpayable",
      "type": "function"
    },
    {
      "inputs": [
        {
          "internalType": "string",
          "name": "uri",
          "type": "string"
        }
      ],
      "name": "createItem",
      "outputs": [
        {
          "internalType": "uint256",
          "name": "",
          "type": "uint256"
        }
      ],
      "stateMutability": "nonpayable",
      "type": "function"
    },
    {
      "inputs": [
        {
          "internalType": "uint256",
          "name": "tokenId",
          "type": "uint256"
        }
      ],
      "name": "tokenURI",
      "outputs": [
        {
          "internalType": "string",
          "name": "",
          "type": "string"
        }
      ],
      "stateMutability": "view",
      "type": "function",
      "constant": true
    }
  ],
  "bytecode": "0x60806040523480156200001157600080fd5b506040518060400160405280600881526020017f54616e6769626c650000000000000000000000000000000000000000000000008152506040518060400160405280600481526020017f54414e4700000000000000000000000000000000000000000000000000000000815250816000908051906020019062000096929190620000b8565b508060019080519060200190620000af929190620000b8565b505050620001cd565b828054620000c69062000168565b90600052602060002090601f016020900481019282620000ea576000855562000136565b82601f106200010557805160ff191683800117855562000136565b8280016001018555821562000136579182015b828111156200013557825182559160200191906001019062000118565b5b50905062000145919062000149565b5090565b5b80821115620001645760008160009055506001016200014a565b5090565b600060028204905060018216806200018157607f821691505b602082108114156200019857620001976200019e565b5b50919050565b7f4e487b7100000000000000000000000000000000000000000000000000000000600052602260045260246000fd5b6131dd80620001dd6000396000f3fe60806040523480156200001157600080fd5b50600436106200010c5760003560e01c80636352211e11620000a5578063b88d4fde116200006f578063b88d4fde14620002e3578063bfb231d21462000303578063c87b56dd146200033c578063e985e9c51462000372576200010c565b80636352211e146200023557806370a08231146200026b57806395d89b4114620002a1578063a22cb46514620002c3576200010c565b8063095ea7b311620000e7578063095ea7b3146200019f57806323b872dd14620001bf5780633d54eebb14620001df57806342842e0e1462000215576200010c565b806301ffc9a7146200011157806306fdde031462000147578063081812fc1462000169575b600080fd5b6200012f600480360381019062000129919062001d6f565b620003a8565b6040516200013e9190620024be565b60405180910390f35b620001516200048e565b60405162000160919062002573565b60405180910390f35b62000187600480360381019062000181919062001e0c565b62000528565b6040516200019691906200244d565b60405180910390f35b620001bd6004803603810190620001b7919062001d2e565b620005b2565b005b620001dd6004803603810190620001d7919062001c12565b620006db565b005b620001fd6004803603810190620001f7919062001dc7565b62000744565b6040516200020c9190620027c7565b60405180910390f35b6200023360048036038101906200022d919062001c12565b62000948565b005b6200025360048036038101906200024d919062001e0c565b6200096a565b6040516200026291906200244d565b60405180910390f35b62000289600480360381019062000283919062001ba5565b62000a1f565b604051620002989190620027c7565b60405180910390f35b620002ab62000ada565b604051620002ba919062002573565b60405180910390f35b620002e16004803603810190620002db919062001ced565b62000b74565b005b620003016004803603810190620002fb919062001c68565b62000d00565b005b6200032160048036038101906200031b919062001e0c565b62000d6b565b604051620003339493929190620024db565b60405180910390f35b6200035a600480360381019062000354919062001e0c565b62000e6b565b60405162000369919062002573565b60405180910390f35b6200039060048036038101906200038a919062001bd1565b62000f68565b6040516200039f9190620024be565b60405180910390f35b60007f80ac58cd000000000000000000000000000000000000000000000000000000007bffffffffffffffffffffffffffffffffffffffffffffffffffffffff1916827bffffffffffffffffffffffffffffffffffffffffffffffffffffffff191614806200047457507f5b5e139f000000000000000000000000000000000000000000000000000000007bffffffffffffffffffffffffffffffffffffffffffffffffffffffff1916827bffffffffffffffffffffffffffffffffffffffffffffffffffffffff1916145b80620004875750620004868262000ffc565b5b9050919050565b6060600080546200049f9062002a59565b80601f0160208091040260200160405190810160405280929190818152602001828054620004cd9062002a59565b80156200051e5780601f10620004f2576101008083540402835291602001916200051e565b820191906000526020600020905b8154815290600101906020018083116200050057829003601f168201915b5050505050905090565b6000620005358262001066565b62000577576040517f08c379a00000000000000000000000000000000000000000000000000000000081526004016200056e906200271d565b60405180910390fd5b6004600083815260200190815260200160002060009054906101000a900473ffffffffffffffffffffffffffffffffffffffff169050919050565b6000620005bf826200096a565b90508073ffffffffffffffffffffffffffffffffffffffff168373ffffffffffffffffffffffffffffffffffffffff16141562000633576040517f08c379a00000000000000000000000000000000000000000000000000000000081526004016200062a9062002783565b60405180910390fd5b8073ffffffffffffffffffffffffffffffffffffffff1662000654620010d2565b73ffffffffffffffffffffffffffffffffffffffff161480620006885750620006878162000681620010d2565b62000f68565b5b620006ca576040517f08c379a0000000000000000000000000000000000000000000000000000000008152600401620006c19062002695565b60405180910390fd5b620006d68383620010da565b505050565b620006f0620006e9620010d2565b8262001195565b62000732576040517f08c379a00000000000000000000000000000000000000000000000000000000081526004016200072990620027a5565b60405180910390fd5b6200073f83838362001280565b505050565b6000620007526006620014ec565b600062000760600662001502565b90506000308285604051620007759062001990565b62000783939291906200252f565b604051809103906000f080158015620007a0573d6000803e3d6000fd5b509050620007af338362001510565b60405180608001604052808273ffffffffffffffffffffffffffffffffffffffff1681526020018381526020013373ffffffffffffffffffffffffffffffffffffffff168152602001858152506007600084815260200190815260200160002060008201518160000160006101000a81548173ffffffffffffffffffffffffffffffffffffffff021916908373ffffffffffffffffffffffffffffffffffffffff1602179055506020820151816001015560408201518160020160006101000a81548173ffffffffffffffffffffffffffffffffffffffff021916908373ffffffffffffffffffffffffffffffffffffffff1602179055506060820151816003019080519060200190620008c59291906200199e565b509050507fcc796c0aa6c7b633d05c9f78af82ef950ca533d69f24c13ec78576a6e93aeae78483336007600087815260200190815260200160002060000160009054906101000a900473ffffffffffffffffffffffffffffffffffffffff1660405162000936949392919062002597565b60405180910390a18192505050919050565b620009658383836040518060200160405280600081525062000d00565b505050565b6000806002600084815260200190815260200160002060009054906101000a900473ffffffffffffffffffffffffffffffffffffffff169050600073ffffffffffffffffffffffffffffffffffffffff168173ffffffffffffffffffffffffffffffffffffffff16141562000a16576040517f08c379a000000000000000000000000000000000000000000000000000000000815260040162000a0d90620026d9565b60405180910390fd5b80915050919050565b60008073ffffffffffffffffffffffffffffffffffffffff168273ffffffffffffffffffffffffffffffffffffffff16141562000a93576040517f08c379a000000000000000000000000000000000000000000000000000000000815260040162000a8a90620026b7565b60405180910390fd5b600360008373ffffffffffffffffffffffffffffffffffffffff1673ffffffffffffffffffffffffffffffffffffffff168152602001908152602001600020549050919050565b60606001805462000aeb9062002a59565b80601f016020809104026020016040519081016040528092919081815260200182805462000b199062002a59565b801562000b6a5780601f1062000b3e5761010080835404028352916020019162000b6a565b820191906000526020600020905b81548152906001019060200180831162000b4c57829003601f168201915b5050505050905090565b62000b7e620010d2565b73ffffffffffffffffffffffffffffffffffffffff168273ffffffffffffffffffffffffffffffffffffffff16141562000bef576040517f08c379a000000000000000000000000000000000000000000000000000000000815260040162000be69062002651565b60405180910390fd5b806005600062000bfe620010d2565b73ffffffffffffffffffffffffffffffffffffffff1673ffffffffffffffffffffffffffffffffffffffff16815260200190815260200160002060008473ffffffffffffffffffffffffffffffffffffffff1673ffffffffffffffffffffffffffffffffffffffff16815260200190815260200160002060006101000a81548160ff0219169083151502179055508173ffffffffffffffffffffffffffffffffffffffff1662000cad620010d2565b73ffffffffffffffffffffffffffffffffffffffff167f17307eab39ab6107e8899845ad3d59bd9653f200f220920489ca2b5937696c318360405162000cf49190620024be565b60405180910390a35050565b62000d1562000d0e620010d2565b8362001195565b62000d57576040517f08c379a000000000000000000000000000000000000000000000000000000000815260040162000d4e90620027a5565b60405180910390fd5b62000d658484848462001530565b50505050565b60076020528060005260406000206000915090508060000160009054906101000a900473ffffffffffffffffffffffffffffffffffffffff16908060010154908060020160009054906101000a900473ffffffffffffffffffffffffffffffffffffffff169080600301805462000de29062002a59565b80601f016020809104026020016040519081016040528092919081815260200182805462000e109062002a59565b801562000e615780601f1062000e355761010080835404028352916020019162000e61565b820191906000526020600020905b81548152906001019060200180831162000e4357829003601f168201915b5050505050905084565b606062000e788262001066565b62000eba576040517f08c379a000000000000000000000000000000000000000000000000000000000815260040162000eb19062002761565b60405180910390fd5b60076000838152602001908152602001600020600301805462000edd9062002a59565b80601f016020809104026020016040519081016040528092919081815260200182805462000f0b9062002a59565b801562000f5c5780601f1062000f305761010080835404028352916020019162000f5c565b820191906000526020600020905b81548152906001019060200180831162000f3e57829003601f168201915b50505050509050919050565b6000600560008473ffffffffffffffffffffffffffffffffffffffff1673ffffffffffffffffffffffffffffffffffffffff16815260200190815260200160002060008373ffffffffffffffffffffffffffffffffffffffff1673ffffffffffffffffffffffffffffffffffffffff16815260200190815260200160002060009054906101000a900460ff16905092915050565b60007f01ffc9a7000000000000000000000000000000000000000000000000000000007bffffffffffffffffffffffffffffffffffffffffffffffffffffffff1916827bffffffffffffffffffffffffffffffffffffffffffffffffffffffff1916149050919050565b60008073ffffffffffffffffffffffffffffffffffffffff166002600084815260200190815260200160002060009054906101000a900473ffffffffffffffffffffffffffffffffffffffff1673ffffffffffffffffffffffffffffffffffffffff1614159050919050565b600033905090565b816004600083815260200190815260200160002060006101000a81548173ffffffffffffffffffffffffffffffffffffffff021916908373ffffffffffffffffffffffffffffffffffffffff160217905550808273ffffffffffffffffffffffffffffffffffffffff166200114f836200096a565b73ffffffffffffffffffffffffffffffffffffffff167f8c5be1e5ebec7d5bd14f71427d1e84f3dd0314c0f7b2291e5b200ac8c7c3b92560405160405180910390a45050565b6000620011a28262001066565b620011e4576040517f08c379a0000000000000000000000000000000000000000000000000000000008152600401620011db9062002673565b60405180910390fd5b6000620011f1836200096a565b90508073ffffffffffffffffffffffffffffffffffffffff168473ffffffffffffffffffffffffffffffffffffffff1614806200126357508373ffffffffffffffffffffffffffffffffffffffff166200124b8462000528565b73ffffffffffffffffffffffffffffffffffffffff16145b8062001277575062001276818562000f68565b5b91505092915050565b8273ffffffffffffffffffffffffffffffffffffffff16620012a2826200096a565b73ffffffffffffffffffffffffffffffffffffffff1614620012fb576040517f08c379a0000000000000000000000000000000000000000000000000000000008152600401620012f2906200273f565b60405180910390fd5b600073ffffffffffffffffffffffffffffffffffffffff168273ffffffffffffffffffffffffffffffffffffffff1614156200136e576040517f08c379a000000000000000000000000000000000000000000000000000000000815260040162001365906200262f565b60405180910390fd5b6200137b83838362001593565b62001388600082620010da565b6001600360008573ffffffffffffffffffffffffffffffffffffffff1673ffffffffffffffffffffffffffffffffffffffff1681526020019081526020016000206000828254620013da919062002913565b925050819055506001600360008473ffffffffffffffffffffffffffffffffffffffff1673ffffffffffffffffffffffffffffffffffffffff1681526020019081526020016000206000828254620014339190620028b6565b92505081905550816002600083815260200190815260200160002060006101000a81548173ffffffffffffffffffffffffffffffffffffffff021916908373ffffffffffffffffffffffffffffffffffffffff160217905550808273ffffffffffffffffffffffffffffffffffffffff168473ffffffffffffffffffffffffffffffffffffffff167fddf252ad1be2c89b69c2b068fc378daa952ba7f163c4a11628f55a4df523b3ef60405160405180910390a4505050565b6001816000016000828254019250508190555050565b600081600001549050919050565b6200152c82826040518060200160405280600081525062001598565b5050565b6200153d84848462001280565b6200154b84848484620015fa565b6200158d576040517f08c379a00000000000000000000000000000000000000000000000000000000081526004016200158490620025eb565b60405180910390fd5b50505050565b505050565b620015a48383620017a3565b620015b36000848484620015fa565b620015f5576040517f08c379a0000000000000000000000000000000000000000000000000000000008152600401620015ec90620025eb565b60405180910390fd5b505050565b60006200161d8473ffffffffffffffffffffffffffffffffffffffff166200197d565b1562001796578373ffffffffffffffffffffffffffffffffffffffff1663150b7a0262001649620010d2565b8786866040518563ffffffff1660e01b81526004016200166d94939291906200246a565b602060405180830381600087803b1580156200168857600080fd5b505af1925050508015620016bc57506040513d601f19601f82011682018060405250810190620016b9919062001d9b565b60015b62001745573d8060008114620016ef576040519150601f19603f3d011682016040523d82523d6000602084013e620016f4565b606091505b506000815114156200173d576040517f08c379a00000000000000000000000000000000000000000000000000000000081526004016200173490620025eb565b60405180910390fd5b805181602001fd5b63150b7a0260e01b7bffffffffffffffffffffffffffffffffffffffffffffffffffffffff1916817bffffffffffffffffffffffffffffffffffffffffffffffffffffffff1916149150506200179b565b600190505b949350505050565b600073ffffffffffffffffffffffffffffffffffffffff168273ffffffffffffffffffffffffffffffffffffffff16141562001816576040517f08c379a00000000000000000000000000000000000000000000000000000000081526004016200180d90620026fb565b60405180910390fd5b620018218162001066565b1562001864576040517f08c379a00000000000000000000000000000000000000000000000000000000081526004016200185b906200260d565b60405180910390fd5b620018726000838362001593565b6001600360008473ffffffffffffffffffffffffffffffffffffffff1673ffffffffffffffffffffffffffffffffffffffff1681526020019081526020016000206000828254620018c49190620028b6565b92505081905550816002600083815260200190815260200160002060006101000a81548173ffffffffffffffffffffffffffffffffffffffff021916908373ffffffffffffffffffffffffffffffffffffffff160217905550808273ffffffffffffffffffffffffffffffffffffffff16600073ffffffffffffffffffffffffffffffffffffffff167fddf252ad1be2c89b69c2b068fc378daa952ba7f163c4a11628f55a4df523b3ef60405160405180910390a45050565b600080823b905060008111915050919050565b6106128062002b9683390190565b828054620019ac9062002a59565b90600052602060002090601f016020900481019282620019d0576000855562001a1c565b82601f10620019eb57805160ff191683800117855562001a1c565b8280016001018555821562001a1c579182015b8281111562001a1b578251825591602001919060010190620019fe565b5b50905062001a2b919062001a2f565b5090565b5b8082111562001a4a57600081600090555060010162001a30565b5090565b600062001a6562001a5f8462002818565b620027e4565b90508281526020810184848401111562001a7e57600080fd5b62001a8b84828562002a14565b509392505050565b600062001aaa62001aa4846200284b565b620027e4565b90508281526020810184848401111562001ac357600080fd5b62001ad084828562002a14565b509392505050565b60008135905062001ae98162002b2d565b92915050565b60008135905062001b008162002b47565b92915050565b60008135905062001b178162002b61565b92915050565b60008151905062001b2e8162002b61565b92915050565b600082601f83011262001b4657600080fd5b813562001b5884826020860162001a4e565b91505092915050565b600082601f83011262001b7357600080fd5b813562001b8584826020860162001a93565b91505092915050565b60008135905062001b9f8162002b7b565b92915050565b60006020828403121562001bb857600080fd5b600062001bc88482850162001ad8565b91505092915050565b6000806040838503121562001be557600080fd5b600062001bf58582860162001ad8565b925050602062001c088582860162001ad8565b9150509250929050565b60008060006060848603121562001c2857600080fd5b600062001c388682870162001ad8565b935050602062001c4b8682870162001ad8565b925050604062001c5e8682870162001b8e565b9150509250925092565b6000806000806080858703121562001c7f57600080fd5b600062001c8f8782880162001ad8565b945050602062001ca28782880162001ad8565b935050604062001cb58782880162001b8e565b925050606085013567ffffffffffffffff81111562001cd357600080fd5b62001ce18782880162001b34565b91505092959194509250565b6000806040838503121562001d0157600080fd5b600062001d118582860162001ad8565b925050602062001d248582860162001aef565b9150509250929050565b6000806040838503121562001d4257600080fd5b600062001d528582860162001ad8565b925050602062001d658582860162001b8e565b9150509250929050565b60006020828403121562001d8257600080fd5b600062001d928482850162001b06565b91505092915050565b60006020828403121562001dae57600080fd5b600062001dbe8482850162001b1d565b91505092915050565b60006020828403121562001dda57600080fd5b600082013567ffffffffffffffff81111562001df557600080fd5b62001e038482850162001b61565b91505092915050565b60006020828403121562001e1f57600080fd5b600062001e2f8482850162001b8e565b91505092915050565b62001e43816200294e565b82525050565b62001e548162002962565b82525050565b600062001e67826200287e565b62001e73818562002894565b935062001e8581856020860162002a23565b62001e908162002b1c565b840191505092915050565b62001ea681620029c4565b82525050565b62001eb781620029ec565b82525050565b600062001eca8262002889565b62001ed68185620028a5565b935062001ee881856020860162002a23565b62001ef38162002b1c565b840191505092915050565b600062001f0d603283620028a5565b91507f4552433732313a207472616e7366657220746f206e6f6e20455243373231526560008301527f63656976657220696d706c656d656e74657200000000000000000000000000006020830152604082019050919050565b600062001f75601c83620028a5565b91507f4552433732313a20746f6b656e20616c7265616479206d696e746564000000006000830152602082019050919050565b600062001fb7602483620028a5565b91507f4552433732313a207472616e7366657220746f20746865207a65726f2061646460008301527f72657373000000000000000000000000000000000000000000000000000000006020830152604082019050919050565b60006200201f601983620028a5565b91507f4552433732313a20617070726f766520746f2063616c6c6572000000000000006000830152602082019050919050565b600062002061602c83620028a5565b91507f4552433732313a206f70657261746f7220717565727920666f72206e6f6e657860008301527f697374656e7420746f6b656e00000000000000000000000000000000000000006020830152604082019050919050565b6000620020c9603883620028a5565b91507f4552433732313a20617070726f76652063616c6c6572206973206e6f74206f7760008301527f6e6572206e6f7220617070726f76656420666f7220616c6c00000000000000006020830152604082019050919050565b600062002131602a83620028a5565b91507f4552433732313a2062616c616e636520717565727920666f7220746865207a6560008301527f726f2061646472657373000000000000000000000000000000000000000000006020830152604082019050919050565b600062002199602983620028a5565b91507f4552433732313a206f776e657220717565727920666f72206e6f6e657869737460008301527f656e7420746f6b656e00000000000000000000000000000000000000000000006020830152604082019050919050565b600062002201602083620028a5565b91507f4552433732313a206d696e7420746f20746865207a65726f20616464726573736000830152602082019050919050565b600062002243602c83620028a5565b91507f4552433732313a20617070726f76656420717565727920666f72206e6f6e657860008301527f697374656e7420746f6b656e00000000000000000000000000000000000000006020830152604082019050919050565b6000620022ab602983620028a5565b91507f4552433732313a207472616e73666572206f6620746f6b656e2074686174206960008301527f73206e6f74206f776e00000000000000000000000000000000000000000000006020830152604082019050919050565b600062002313602f83620028a5565b91507f4552433732314d657461646174613a2055524920717565727920666f72206e6f60008301527f6e6578697374656e7420746f6b656e00000000000000000000000000000000006020830152604082019050919050565b60006200237b602183620028a5565b91507f4552433732313a20617070726f76616c20746f2063757272656e74206f776e6560008301527f72000000000000000000000000000000000000000000000000000000000000006020830152604082019050919050565b6000620023e3603183620028a5565b91507f4552433732313a207472616e736665722063616c6c6572206973206e6f74206f60008301527f776e6572206e6f7220617070726f7665640000000000000000000000000000006020830152604082019050919050565b6200244781620029ba565b82525050565b600060208201905062002464600083018462001e38565b92915050565b600060808201905062002481600083018762001e38565b62002490602083018662001e38565b6200249f60408301856200243c565b8181036060830152620024b3818462001e5a565b905095945050505050565b6000602082019050620024d5600083018462001e49565b92915050565b6000608082019050620024f2600083018762001e9b565b6200250160208301866200243c565b62002510604083018562001e38565b818103606083015262002524818462001ebd565b905095945050505050565b600060608201905062002546600083018662001eac565b6200255560208301856200243c565b818103604083015262002569818462001ebd565b9050949350505050565b600060208201905081810360008301526200258f818462001ebd565b905092915050565b60006080820190508181036000830152620025b3818762001ebd565b9050620025c460208301866200243c565b620025d3604083018562001e38565b620025e2606083018462001e38565b95945050505050565b60006020820190508181036000830152620026068162001efe565b9050919050565b60006020820190508181036000830152620026288162001f66565b9050919050565b600060208201905081810360008301526200264a8162001fa8565b9050919050565b600060208201905081810360008301526200266c8162002010565b9050919050565b600060208201905081810360008301526200268e8162002052565b9050919050565b60006020820190508181036000830152620026b081620020ba565b9050919050565b60006020820190508181036000830152620026d28162002122565b9050919050565b60006020820190508181036000830152620026f4816200218a565b9050919050565b600060208201905081810360008301526200271681620021f2565b9050919050565b60006020820190508181036000830152620027388162002234565b9050919050565b600060208201905081810360008301526200275a816200229c565b9050919050565b600060208201905081810360008301526200277c8162002304565b9050919050565b600060208201905081810360008301526200279e816200236c565b9050919050565b60006020820190508181036000830152620027c081620023d4565b9050919050565b6000602082019050620027de60008301846200243c565b92915050565b6000604051905081810181811067ffffffffffffffff821117156200280e576200280d62002aed565b5b8060405250919050565b600067ffffffffffffffff82111562002836576200283562002aed565b5b601f19601f8301169050602081019050919050565b600067ffffffffffffffff82111562002869576200286862002aed565b5b601f19601f8301169050602081019050919050565b600081519050919050565b600081519050919050565b600082825260208201905092915050565b600082825260208201905092915050565b6000620028c382620029ba565b9150620028d083620029ba565b9250827fffffffffffffffffffffffffffffffffffffffffffffffffffffffffffffffff0382111562002908576200290762002a8f565b5b828201905092915050565b60006200292082620029ba565b91506200292d83620029ba565b92508282101562002943576200294262002a8f565b5b828203905092915050565b60006200295b826200299a565b9050919050565b60008115159050919050565b60007fffffffff0000000000000000000000000000000000000000000000000000000082169050919050565b600073ffffffffffffffffffffffffffffffffffffffff82169050919050565b6000819050919050565b6000620029d182620029d8565b9050919050565b6000620029e5826200299a565b9050919050565b6000620029f98262002a00565b9050919050565b600062002a0d826200299a565b9050919050565b82818337600083830152505050565b60005b8381101562002a4357808201518184015260208101905062002a26565b8381111562002a53576000848401525b50505050565b6000600282049050600182168062002a7257607f821691505b6020821081141562002a895762002a8862002abe565b5b50919050565b7f4e487b7100000000000000000000000000000000000000000000000000000000600052601160045260246000fd5b7f4e487b7100000000000000000000000000000000000000000000000000000000600052602260045260246000fd5b7f4e487b7100000000000000000000000000000000000000000000000000000000600052604160045260246000fd5b6000601f19601f8301169050919050565b62002b38816200294e565b811462002b4457600080fd5b50565b62002b528162002962565b811462002b5e57600080fd5b50565b62002b6c816200296e565b811462002b7857600080fd5b50565b62002b8681620029ba565b811462002b9257600080fd5b5056fe608060405234801561001057600080fd5b50604051610612380380610612833981810160405281019061003291906101ce565b82600260006101000a81548173ffffffffffffffffffffffffffffffffffffffff021916908373ffffffffffffffffffffffffffffffffffffffff160217905550816001819055508060009080519060200190610090929190610099565b505050506103d5565b8280546100a590610317565b90600052602060002090601f0160209004810192826100c7576000855561010e565b82601f106100e057805160ff191683800117855561010e565b8280016001018555821561010e579182015b8281111561010d5782518255916020019190600101906100f2565b5b50905061011b919061011f565b5090565b5b80821115610138576000816000905550600101610120565b5090565b600061014f61014a84610266565b610235565b90508281526020810184848401111561016757600080fd5b6101728482856102e4565b509392505050565b600081519050610189816103a7565b92915050565b600082601f8301126101a057600080fd5b81516101b084826020860161013c565b91505092915050565b6000815190506101c8816103be565b92915050565b6000806000606084860312156101e357600080fd5b60006101f18682870161017a565b9350506020610202868287016101b9565b925050604084015167ffffffffffffffff81111561021f57600080fd5b61022b8682870161018f565b9150509250925092565b6000604051905081810181811067ffffffffffffffff8211171561025c5761025b610378565b5b8060405250919050565b600067ffffffffffffffff82111561028157610280610378565b5b601f19601f8301169050602081019050919050565b60006102a1826102ba565b9050919050565b60006102b382610296565b9050919050565b600073ffffffffffffffffffffffffffffffffffffffff82169050919050565b6000819050919050565b60005b838110156103025780820151818401526020810190506102e7565b83811115610311576000848401525b50505050565b6000600282049050600182168061032f57607f821691505b6020821081141561034357610342610349565b5b50919050565b7f4e487b7100000000000000000000000000000000000000000000000000000000600052602260045260246000fd5b7f4e487b7100000000000000000000000000000000000000000000000000000000600052604160045260246000fd5b6103b0816102a8565b81146103bb57600080fd5b50565b6103c7816102da565b81146103d257600080fd5b50565b61022e806103e46000396000f3fe608060405234801561001057600080fd5b506004361061002b5760003560e01c8063eac989f814610030575b600080fd5b61003861004e565b6040516100459190610115565b60405180910390f35b6000805461005b90610186565b80601f016020809104026020016040519081016040528092919081815260200182805461008790610186565b80156100d45780601f106100a9576101008083540402835291602001916100d4565b820191906000526020600020905b8154815290600101906020018083116100b757829003601f168201915b505050505081565b60006100e782610137565b6100f18185610142565b9350610101818560208601610153565b61010a816101e7565b840191505092915050565b6000602082019050818103600083015261012f81846100dc565b905092915050565b600081519050919050565b600082825260208201905092915050565b60005b83811015610171578082015181840152602081019050610156565b83811115610180576000848401525b50505050565b6000600282049050600182168061019e57607f821691505b602082108114156101b2576101b16101b8565b5b50919050565b7f4e487b7100000000000000000000000000000000000000000000000000000000600052602260045260246000fd5b6000601f19601f830116905091905056fea2646970667358221220254e8365fee9c8d457c44d9dc93a43feca9d717cecdfa0c26c010b3c0eb7e29d64736f6c63430008000033a2646970667358221220b361cb839cc28c00c7e8e5ace521c632921e7c4b54bb03efe528ffc9e7f6fc2964736f6c63430008000033",
  "immutableReferences": {},
  "source": "// SPDX-License-Identifier: MIT\npragma solidity >=0.4.22 <0.9.0;\nimport \"../node_modules/@openzeppelin/contracts/token/ERC721/ERC721.sol\";\nimport \"../node_modules/@openzeppelin/contracts/utils/Counters.sol\";\nimport \"./Collectible.sol\";\n\ncontract Tangible is ERC721 {\n    using Counters for Counters.Counter;\n    Counters.Counter private _tokenIds;\n\n    struct Item {\n        Collectible collectible;\n        uint256 id;\n        address creator;\n        string uri;\n    }\n\n    constructor() ERC721(\"Tangible\", \"TANG\") {}\n\n    mapping(uint256 => Item) public items;\n    event ItemCreated(\n        string uri,\n        uint256 _tokenId,\n        address owner,\n        address collectible\n    );\n\n    function createItem(string memory uri) public returns (uint256) {\n        // increment token id\n\n        _tokenIds.increment();\n        // get id of the newly created token\n        uint256 _tokenId = _tokenIds.current();\n        // mint the token\n        Collectible _collectible = new Collectible(this, _tokenId, uri);\n        _safeMint(msg.sender, _tokenId);\n        items[_tokenId] = Item(_collectible, _tokenId, msg.sender, uri);\n        // emit event showing the uri, the token id and the address of the owner\n        emit ItemCreated(\n            uri,\n            _tokenId,\n            msg.sender,\n            address(items[_tokenId].collectible)\n        );\n        return _tokenId;\n    }\n\n    function tokenURI(uint256 tokenId)\n        public\n        view\n        override\n        returns (string memory)\n    {\n        require(\n            _exists(tokenId),\n            \"ERC721Metadata: URI query for nonexistent token\"\n        );\n        return items[tokenId].uri;\n    }\n}\n\n// /Users/fabriciopolicarpo/Desktop/Projects/drizzle-react-tutorial/node_modules/@openzeppelin/contracts/token/ERC20/IERC20.sol\n",
  "sourcePath": "/Users/fabriciopolicarpo/Desktop/Projects/drizzle-react-tutorial/contracts/Tangible.sol",
  "compiler": {
    "name": "solc",
    "version": "0.8.0+commit.c7dfd78e.Emscripten.clang"
  },
  "schemaVersion": "3.4.1",
  "updatedAt": "2021-05-30T02:48:29.671Z",
  "networkType": "ethereum",
  "devdoc": {
    "kind": "dev",
    "methods": {
      "approve(address,uint256)": {
        "details": "See {IERC721-approve}."
      },
      "balanceOf(address)": {
        "details": "See {IERC721-balanceOf}."
      },
      "getApproved(uint256)": {
        "details": "See {IERC721-getApproved}."
      },
      "isApprovedForAll(address,address)": {
        "details": "See {IERC721-isApprovedForAll}."
      },
      "name()": {
        "details": "See {IERC721Metadata-name}."
      },
      "ownerOf(uint256)": {
        "details": "See {IERC721-ownerOf}."
      },
      "safeTransferFrom(address,address,uint256)": {
        "details": "See {IERC721-safeTransferFrom}."
      },
      "safeTransferFrom(address,address,uint256,bytes)": {
        "details": "See {IERC721-safeTransferFrom}."
      },
      "setApprovalForAll(address,bool)": {
        "details": "See {IERC721-setApprovalForAll}."
      },
      "supportsInterface(bytes4)": {
        "details": "See {IERC165-supportsInterface}."
      },
      "symbol()": {
        "details": "See {IERC721Metadata-symbol}."
      },
      "tokenURI(uint256)": {
        "details": "See {IERC721Metadata-tokenURI}."
      },
      "transferFrom(address,address,uint256)": {
        "details": "See {IERC721-transferFrom}."
      }
    },
    "version": 1
  },
  "userdoc": {
    "kind": "user",
    "methods": {},
    "version": 1
  }
}